:020000040800F2
:10000000201B002065020008350300082D030008AE
:10001000310300081F030008C103000800000000AE
:10002000000000000000000000000000390300088C
:100030002303000800000000370300083B0300080A
:100040007F0200087F0200087F0200087F0200088C
:100050007F0200087F020008250300087F020008D5
:100060007F0200087F0200087F0200087F0200086C
:100070007F0200087F0200087F0200087F0200085C
:100080007F0200087F0200087F0200087F0200084C
:10009000B10300087F0200087F0200087F02000809
:1000A0007F0200087F0200087F0200087F0200082C
:1000B0007F0200087F0200087F0200087F0200081C
:1000C0007F0200087F0200087F0200087F0200080C
:1000D0007F0200087F0200087F0200087F020008FC
:1000E0007F0200087F0200087F0200087F020008EC
:1000F0007F0200087F0200087F0200087F020008DC
:100100007F0200087F0200087F0200087F020008CB
:100110007F0200087F0200087F0200087F020008BB
:100120007F0200087F0200087F0200087F020008AB
:100130007F0200087F0200087F0200087F0200089B
:1001400000000000000000000000000000000000AF
:100150007F0200087F0200087F0200087F0200087B
:100160007F0200087F0200087F0200087F0200086B
:100170007F0200087F0200087F0200087F0200085B
:100180007F02000800F002F800F05CF80AA090E896
:10019000000C82448344AAF10107DA4501D100F042
:1001A00051F8AFF2090EBAE80F0013F0010F18BFB3
:1001B000FB1A43F001031847F03600001037000027
:1001C0000A444FF0000C10F8013B13F0070408BF7D
:1001D00010F8014B1D1108BF10F8015B641E05D01B
:1001E00010F8016B641E01F8016BF9D113F0080FD0
:1001F0001EBF10F8014BAD1C0C1B09D16D1E58BF62
:1002000001F801CBFAD505E014F8016B01F8016B98
:100210006D1EF9D59142D6D370470000002300240B
:1002200000250026103A28BF78C1FBD8520728BF06
:1002300030C148BF0B6070471FB503F028FB1FBDDE
:1002400010B510BD00F031F81146FFF7F5FF01F0D1
:100250008DFC00F04FF803B4FFF7F2FF03BC00F091
:1002600057F800000948804709480047FEE7FEE7C5
:10027000FEE7FEE7FEE7FEE7FEE7FEE7FEE7FEE756
:1002800004480549054A064B704700003D03000835
:100290008501000820150020201B002020170020C9
:1002A00020170020704770477047754600F02CF803
:1002B000AE4605006946534620F00700854618B053
:1002C00020B5FFF7DDFFBDE820404FF000064FF0FE
:1002D00000074FF000084FF0000B21F00701AC467B
:1002E000ACE8C009ACE8C009ACE8C009ACE8C0099A
:1002F0008D46704710B50446AFF300802046BDE838
:100300001040FFF7A8BF000000487047C01400204D
:1003100001491820ABBEFEE726000200704700BF6F
:10032000FEE7704710B500F071FD10BD00BFFEE79D
:1003300000BFFEE770477047704770471948006874
:1003400040F47000174908601748006820F0010069
:10035000401C1549086000BF13480068C0F3400006
:100360000028F9D01048406820F003000E4948608A
:1003700000BF0D484068C0F381000028F9D10A4948
:10038000486008460068094908400749086000209D
:1003900008634FF41F008860C80302498039086071
:1003A0007047000088ED00E000100240FFFFF2FE01
:1003B00010B5024803F0AFF810BD00004401002062
:1003C00000BFFEE730B90A4A126822F00202084B69
:1003D0001A6006E0064A126822F00202921C044BE0
:1003E0001A60034A126861F30002014B1A607047F9
:1003F0000458014001490860704700000C58014052
:100400000149086070470000105801400149086028
:10041000704700001458014070B505462E467068BC
:10042000446A41F22400015941F24400015141F271
:100430002800015941F2480001514FF48150005900
:100440002149884214D10121304602F0FDFF1F28C6
:100450000ED141F22D00005D012809DC41F22E0091
:10046000005D012804DB41F22E00005D10280ADD4A
:1004700020220521284600F063FB022060702846F8
:1004800000F064FB1FE0284600F0AEF818B12846E3
:1004900000F05CFB17E02078012814D020780228B7
:1004A00011D0207804280ED0A06920B90021284658
:1004B00000F0FCFA07E0A06928B104F11C0128460D
:1004C000A26900F015FB70BD5553424310B50246BA
:1004D0000C4613465868416A0020886110BD2DE91A
:1004E000F04107460C46B846D8F80400456A05F1C5
:1004F0001C0605F10C0000EB8402001F00EB8401D8
:10050000204601F06DFB05F1080050F82400401E64
:10051000000E307005F1080050F82400401E000C59
:10052000707005F1080030F82400401E000AB07019
:1005300005F1080010F82400401EF07005F10C00D1
:1005400050F82400000E307105F10C0050F8240022
:10055000000C707105F10C0030F82400000AB07135
:1005600005F10C0010F82400F0710820A8610020AB
:10057000BDE8F0812DE9F04304460D4616461F46BE
:10058000A046D8F80400D0F82490F11909F1080029
:1005900050F82500814207D921220521204600F08C
:1005A000CFFA0120BDE8F0830020FBE72DE9F04100
:1005B00004460E4627467868456A6878022806D1C0
:1005C0008121384603F0BCF8002068700AE006F08C
:1005D0008000802806D16878012803D001212046B8
:1005E00000F064FABDE8F0812DE9F04105460126EE
:1005F0002F467868446A41F22F00005D232876D0A8
:100600000EDC1A2829D006DC002856D003284CD04E
:10061000122874D111E01B2817D01E286FD12CE0AE
:100620002A285AD004DC252837D0282867D12CE086
:100630002F284AD05A2862D117E041F22D00015DDF
:10064000284600F015F9064660E041F22D00015DF4
:10065000284600F09DFA064658E041F22D00015D63
:10066000284600F04DF9064650E041F22D00015DAC
:10067000284600F02DF9064648E041F22D00015DC4
:100680002846FFF723FF064640E041F22D00015DBA
:10069000284600F04DF9064638E041F22D00015D94
:1006A0002846FFF71CFF064630E041F22D00015DB1
:1006B000284600F0C7F9064628E041F22D00015D0A
:1006C000284600F06EFA064620E041F22D00015D5A
:1006D000284600F07EFA064618E041F22D00015D42
:1006E000284600F0AEFA064610E000E007E041F2CE
:1006F0002D00015D284600F04BF8064606E020225A
:100700000521284600F01CFA012600BF00BF304634
:10071000BDE8F0812DE9F04104460F462646706899
:10072000456A2878012804D003280CD004280FD16A
:1007300008E02046FFF758FF18B10121204600F0DD
:10074000B5F906E000BF0021204600F0AFF900E057
:1007500000BF00BFBDE8F0812DE9F04104460F461F
:1007600026467068456A2878022805D007280CD1EB
:100770002046FFF751FE08E02046FFF735FF18B18D
:100780000121204600F092F900BF00BFBDE8F081D2
:100790002DE9F04107460D46B846D8F80400466AF0
:1007A00006F11C04002020706070A0700820E0702A
:1007B00006F10C0000EB8502001F00EB85012846C6
:1007C00001F00EFA06F1080050F82500401E000E58
:1007D000207106F1080050F82500401E000C6071E1
:1007E00006F1080030F82500401E000AA07106F14D
:1007F000080010F82500401EE0710220207206F16A
:100800000C0050F82500000C607206F10C0030F866
:100810002500000AA07206F10C0010F82500E07215
:100820000C20B0610020BDE8F081000070B50546E5
:100830002E467068446A0720207000206070606057
:100840000A494FF482500151002141F24800015100
:100850004FF482500151001D01511F2304F58152B4
:100860000121304602F094FB70BD00005553425305
:100870002DE9F047074688460024A146BA46DAF833
:100880000400456A41F23000405D00F0010010B103
:100890000E4E05240DE0404601F05AF8064641F29E
:1008A00028004059242803D241F22800445900E08E
:1008B0002424AC6104E0641E315D05F11C00015587
:1008C000002CF8D14846BDE8F08700004800002021
:1008D00070B502460D46082114466068436A082038
:1008E000986106E0481EC1B20448465C03F11C0052
:1008F00046540029F6D1002070BD00007000002091
:1009000070B502460D46082114466068436A082007
:10091000986106E0481EC1B20448465C03F11C0021
:1009200046540029F6D1002070BD00006800002068
:100930002DE9F04780460F46C146D9F80400446AC5
:1009400004F5815000F10F052078072844D141F2C9
:100950002C00005D00F08000802807D020220521B7
:10096000404600F0EDF80120BDE8F087A8780006C9
:10097000E97840EA0140297940EA01206979084391
:100980002061287AE97940EA0120606139464046D1
:10099000D4E90423FFF7EEFD08B10120E4E704F1F8
:1009A0000C0151F8271020694843206104F10C0123
:1009B00051F8271060694843606141F228000059EE
:1009C0006169884206D020220521404600F0B8F82F
:1009D0000120C9E7012020704FF48050A0616069B8
:1009E000B0F5805F01D2606901E04FF4805086B2BB
:1009F000334604F11C023846216901F029F930B16F
:100A00003A220421404600F09BF80120ACE7B3B243
:100A100004F11C028121484602F0F4FA20693044B6
:100A200020616069801B606141F248000059811BB0
:100A300041F248000151606908B90420207000208B
:100A400092E70000F0B503460F4612221E4670687A
:100A5000416A01F11C040A4D02E0521EA85CA05438
:100A6000002AFAD141F228004058122804D241F25B
:100A700028004058886101E0122088610020F0BD04
:100A80005000002070B505462E467068446A072065
:100A9000207001206070002060601F2304F58152E7
:100AA0000121304602F074FA70BD00002DE9F041DA
:100AB00005460E462F467868446A41F24C000651BE
:100AC0000A494FF482500151072020700D2304F58C
:100AD00082528121384602F095FA1F2304F5815293
:100AE0000121384602F054FABDE8F08155534253D3
:100AF0002DE9F04706460F469046B146D9F8040066
:100B0000446A41F228000059404501D9404602E0BC
:100B100041F22800005985B241F248000059411BBA
:100B200041F2480001510021001D015103202070B5
:100B30002B463A468121484602F064FABDE8F08728
:100B4000014B99701A7470475000002070B505462B
:100B50002E467068446A41F22800005948B141F2BB
:100B60002C00005D28B9607818B90121304602F0E8
:100B7000E7FD8121304602F0E3FD6078022806D1CE
:100B80001F2304F581520121304602F001FA70BDA5
:100B900010B502460C4613465868416A0020886129
:100BA00010BD2DE9F04104468846002627467868A6
:100BB000456A41F22800405938B1202205212046DB
:100BC000FFF7BEFF0120BDE8F0810020A86130469C
:100BD000F9E72DE9F04106460F46B046D8F8040083
:100BE000446A04F5815000F10F0541F23000005DC8
:100BF00000F00200022807D1242205213046FFF729
:100C00009FFF0120BDE8F081A8780006E97840EA5E
:100C10000140297940EA0120697908432061287A56
:100C2000E97940EA0120606139463046D4E904237D
:100C3000FFF7A0FC08B10120E4E70020A06100BF9D
:100C4000E0E72DE9F04780460F46C146D9F8040099
:100C5000446A04F5815000F10F062078072855D129
:100C600041F22C00005D00F08000802807D1202296
:100C700005214046FFF764FF0120BDE8F087B0780A
:100C80000006F17840EA0140317940EA01207179AB
:100C900008432061307AF17940EA012060613946E9
:100CA0004046D4E90423FFF765FC08B10120E4E7DE
:100CB00004F10C0151F8271020694843206104F128
:100CC0000C0151F8271060694843606141F2280027
:100CD00000596169884206D0202205214046FFF76D
:100CE0002FFF0120C9E7022020706069B0F5805F06
:100CF00001D2606901E04FF4805085B22B4604F1C7
:100D00001C020121484602F043F93BE06069B0F55E
:100D1000805F01D2606901E04FF4805085B22B46BC
:100D200004F11C023846216900F0B8FF30B13A22C4
:100D300004214046FFF704FF01209EE72069284474
:100D400020616069401B606141F248000059411B0D
:100D500041F248000151606920B900214046FFF787
:100D6000A5FE0FE06069B0F5805F01D2606901E027
:100D70004FF4805085B22B4604F11C0201214846F5
:100D800002F006F9002078E70EB501214FF4C010FB
:100D900000F0CEF90021084600F00EFE684600F093
:100DA000D5FA01208DF8090000208DF800000120FF
:100DB00001908DF80800684600F0D6FA032001F093
:100DC0002FF800221146062000F0C6FF0EBD0000DD
:100DD0001CB501210B4800F0ABF9684600F0E0FDBE
:100DE00001208DF8070000208DF804008DF8060022
:100DF0000120009018208DF805006946024800F097
:100E00002DFE1CBD020018000008014010B5052091
:100E100000F062FA012000F0A1FA0121074800F079
:100E200071FE50B906480078042803D10120044916
:100E3000087002E004200249087010BD000801405B
:100E40003400002070B50446002526468121304636
:100E500001F0E4FF0121304601F0E0FF284670BDBB
:100E60002DE9F0410446002526460021304602F0D7
:100E7000EBFA07462846BDE8F0810146002070479E
:100E800002460020012904D0022903D0032903D1FE
:100E900001E002E001E000E000BF00BF704770B574
:100EA00004460D46002629462046FFF733FC30460F
:100EB00070BD70B5044600252646402301228121DD
:100EC000304602F038F8402301221146304602F045
:100ED00032F82046FFF7AAFC284670BD70B50446DC
:100EE0000D46002629462046FFF736FC304670BDE9
:100EF0002DE9F04105460C464FF000082F46786872
:100F0000466A207800F06000D0B1202851D1607886
:100F1000FE2802D0FF280DD105E00122311D384600
:100F200001F043FE0AE02846FFF7ACFD384601F029
:100F300050FE03E0384601F058FE00BF00BF3CE021
:100F40006078012817D0062804D00A2806D00B287C
:100F50002CD10BE0384601F048FE28E0012241F296
:100F60001C003118384601F020FE20E0618841F273
:100F70001C0081511BE02179384601F04FFF207998
:100F800000F08000802806D12179402301223846D4
:100F900001F0D1FF05E0217940230122384601F01C
:100FA000CAFF21792846FFF701FB00E000BF00BF20
:100FB00003E0384601F019FE00BF00BF4046BDE81F
:100FC000F0810146002070470349496860F307112A
:100FD000014A51607047000000100240034949680F
:100FE00060F30A21014A516070470000001002407E
:100FF0000349496860F3CD21014A51607047000000
:1010000000100240012807D10749496D21F0300145
:101010003031054A516505E00349496D21F0300141
:10102000014A51657047000000100240052827D290
:10103000DFE800F0030A11181F00134A126861F379
:101040000002114B1A601CE00F4A126861F3104253
:101050000D4B1A6015E00C4A126861F318620A4BD6
:101060001A600EE0084A126A61F30002064B1A6227
:1010700007E0054A526A61F30002034B5A6200E03E
:1010800000BF00BF704700000010024010B50146CD
:101090000020094B03EB1142126801F01F040123E9
:1010A000A3401A4001F01F040123A3409A4200D03C
:1010B00000E0012010BD0000001002400349496D0E
:1010C00060F30D31014A5165704700000010024085
:1010D00030B50024002500E0641C1120FFF7D6FF86
:1010E000012802D0B4F5405FF6D31120FFF7CEFF00
:1010F000012801D0002500E00125284630BD000070
:101100000349096B60F35961014A1163704700009C
:101110000010024000B503460120FFF7F1FF03482D
:10112000406D63F349200149486500BD001002404D
:1011300010B501290DD10E4B03EB1042126800F0DF
:101140001F040123A3401A43094C04EB10431A6007
:101150000CE0074B03EB1042126800F01F04012360
:10116000A3409A43024C04EB10431A6010BD0000E8
:101170000010024010B530B9184B5B6823F480337F
:10118000164C636017E0154B5B6823F4803303F55E
:101190008033124C6360012805D123465B6823F439
:1011A0000033636007E00D4B5B6823F4003303F505
:1011B00000330A4C6360094B5B6861F39543074C4D
:1011C00063600C09054B5B6864F35E73034C6360FA
:1011D00023465B6862F3DF73636010BD001002405A
:1011E0001448006820F00100401C1249086000BF4C
:1011F00010480068C0F340000028F9D00D4840684E
:1012000020F003000B49486000BF0A484068C0F363
:1012100081000028F9D1074948600846006806495E
:10122000084004490860002008634FF41F008860EC
:101230007047000000100240FFFFF2FE03494968BA
:1012400060F30101014A5160704700000010024044
:1012500002484068C0F3810070470000001002405F
:101260000649496860F39751044A5160820803496E
:10127000496862F3DB61014A516070470010024027
:1012800010B50446012C01D1FFF744FF0348406D1F
:1012900064F308200149486510BD000000100240B9
:1012A00010B5042000F084FE074800680749B0FB31
:1012B000F1F007490860084600684FF47A71484326
:1012C0000449086010BD00004000002040420F00AB
:1012D0000000002004000020002131E032280ADD57
:1012E000194A126832235A434FF0E0235A61A0F1A1
:1012F000320290B206E0144A126842434FF0E023F3
:101300005A61002000224FF0E0239A611A461269C8
:1013100042F001021A6100BF4FF0E022116901F0B2
:1013200001021AB101F48032002AF5D04FF0E02218
:10133000126922F001024FF0E0231A6100229A6143
:101340000028CBD17047000004000020002141722A
:10135000416001210172017070470000014908607D
:101360007047000014040140014600204868234AE9
:1013700012688243214B1A601A1D126882431B1D9A
:101380001A604A7A0AB30A782AB91A1F1268024305
:101390001B1F1A6006E0194A121D12680243174B00
:1013A0001B1D1A60154A083212688243134B08331A
:1013B0001A601A1D126882431B1D1A600A7A2AB924
:1013C0001A1F126802431B1F1A6016E00A7A012ACC
:1013D00007D10A4A0C3212680243084B0C331A60D8
:1013E0000BE0064A083212680243044B08331A60C5
:1013F0001A1D126802431B1D1A6070470004014049
:1014000003200B49C96801F0010109B100200EE079
:101410000749C968C1F3800109B1012007E0044907
:10142000C968C1F3001109B1022000E00320704730
:101430000020024000B502460323FFF7E1FF034608
:1014400003E0FFF7DDFF0346521E0BB9002AF8D177
:1014500002B90423184600BD03200B49C96C01F0F2
:10146000010109B100200EE00749C96CC1F38001F8
:1014700009B1012007E00449C96CC1F3001109B1A9
:10148000022000E0032070470020024000B5024621
:101490000323FFF7E1FF034603E0FFF7DDFF034609
:1014A000521E0BB9002AF8D102B90423184600BD18
:1014B00070B504460D460326B4F1006F1DD32048D5
:1014C00084421AD84FF48010FFF7B4FF0646032E6B
:1014D00034D11C48006920F00100401C1949086102
:1014E00025704FF48010FFF7A5FF064615480069E8
:1014F00020F001001349086120E01148401C84429B
:101500001CD3B4F1016F19D24FF48010FFF7BEFF66
:101510000646032E12D10B48006D20F00100401C3E
:101520000849086525704FF48010FFF7AFFF0646A5
:101530000448006D20F0010002490865304670BD86
:10154000FFFF0708002002400146002001F0E042B2
:1015500021F0E0414AB1B2F1805F0CD0B2F1005FFE
:101560000FD0B2F1804F19D112E00E4BDB680B4067
:1015700003B1012013E00B4BDB6C0B4003B10120E6
:101580000DE0084B8C331B680B4003B1012006E0D3
:10159000044BDB690B4003B1012000E000BF00BF3A
:1015A00070470000002002400648006920F08000DB
:1015B0008030044908610846006D20F080008030CA
:1015C000086570470020024030B504460325B4F199
:1015D000006F22D33B4884421FD84FF08040FFF772
:1015E00029FF0546032D6BD13748006920F0020022
:1015F000801C3549086108464461006920F04000BC
:10160000403008614804FFF715FF05462E48006981
:1016100020F002002C49086152E02A48401C844214
:1016200021D3B4F1016F1ED2C002FFF72FFF054690
:10163000032D45D12448006D20F00200801C224972
:10164000086508464465006D20F04000403008659C
:101650004804FFF71BFF05461B48006D20F0020001
:10166000194908652CE0B4F1046F29D34FF0FF301D
:1016700000F052F80546032D20D113489030006841
:1016800020F00200801C1049C1F890000846C0F804
:1016900094400D489030006820F0400040300A49E6
:1016A00090310860281F00F037F805460648D0F84A
:1016B000900020F00200044990310860284630BDB7
:1016C0002846FCE7FFFF07080020024004480068A6
:1016D00020F08000803002499039C1F890007047B6
:1016E0009020024003200B49096801F0010109B173
:1016F00000200EE007490968C1F3800109B101200B
:1017000007E004490968C1F3001109B1022000E0B3
:10171000032070478C20024000B502460323FFF7E8
:10172000E1FF034603E0FFF7DDFF0346521E0BB95E
:10173000002AF8D102B90423184600BD044805491F
:101740000860054803498439C1F8840070470000E7
:101750002301674584200240AB89EFCD0448054949
:101760004860054848600248486403484864704738
:101770002301674500200240AB89EFCD70B50446D8
:101780000D460326B4F1006F1DD3314884421AD8A8
:101790004FF48010FFF74EFE0646032E56D12D481B
:1017A000006920F00100401C2A49086125604FF4BF
:1017B0008010FFF73FFE06462648006920F0010032
:1017C0002449086142E02248401C84421DD3B4F100
:1017D000016F1AD24FF48010FFF758FE0646032E11
:1017E00034D11C48006D20F00100401C19490865E7
:1017F00025604FF48010FFF749FE06461548006D3E
:1018000020F001001349086520E0B4F1046F1DD3F6
:101810004FF48010FFF780FF0646032E16D10D48C7
:101820009030006820F00100401C0A4990310860A7
:1018300025604FF48010FFF76FFF06460548D0F88B
:10184000900020F001000349C1F89000304670BDBF
:10185000FFFF07080020024010B5054905A001F070
:10186000E6FF0949088002484860084610BD0000AC
:10187000C01300204D6173732053746F72616765EC
:1018800020436F6E666967003C0100200048704786
:1018900024010020004870471C01002010B50549B4
:1018A00005A001F0C4FF0A490880024848600846C4
:1018B00010BD0000C01300204D6173732053746F7E
:1018C0007261676520496E746572666163650000C8
:1018D0003C010020004870472C01002010B505494C
:1018E00005A001F0A4FF06490880024848600846A8
:1018F00010BD0000C01300204172746572790000B1
:101900003C0100200020704710B5054905A001F0FA
:101910008EFF0949088002484860084610BD000053
:10192000C013002041543332204D6173732053742F
:101930006F726167650000003C0100200020704765
:1019400010B500F013F8014810BD0000340100206C
:101950000146012905DA01EBC100034A02EB8000D0
:1019600070470020FCE700001000002070B50A4816
:101970000468001D0568001D0668344454B108223F
:101980000649204601F08CFD042204491031284606
:1019900001F086FD70BD0000E8F7FF1F0201002086
:1019A0004FF6FF71016000218171017104214171C5
:1019B0000121C1717047000010B500228B071C0F78
:1019C0000F2303FA04F28B1033B1012B13D0022B37
:1019D00020D0032B3CD12CE01F4B9B6893431E4C23
:1019E000A36023469B688C07240F00FA04F423436A
:1019F000194CA3602DE0184BDB689343164CE36051
:101A00002346DB688C07240F00FA04F42343124CAE
:101A1000E3601EE0104B1B6993430F4C2361234688
:101A20001B698C07240F00FA04F423430A4C23613A
:101A30000FE0094B5B699343074C636123465B6985
:101A40008C07240F00FA04F42343034C636100E085
:101A500000BF00BF10BD000000000140F0B50A4605
:101A60001588ABB29579032D01D100241AE0957940
:101A700065B9557905F00F045579182D01D1036129
:101A800010E05579282D0DD143610BE0957905F0D3
:101A90000805167906F004063543D67906F00306E4
:101AA00045EA0604DDB2A5B1002110E001258D4014
:101AB0001D405DB105688F000F26BE40B54305602F
:101AC00005688E0004FA06F635430560491C0829AE
:101AD000ECD3FF2B15DD1B12002110E001258D40FA
:101AE0001D405DB145688F000F26BE40B54345607F
:101AF00045688E0004FA06F635434560491C0829FE
:101B0000ECD3F0BD0246002093680B408B4200D01E
:101B100000E00120704700001CB501210C48FFF7D0
:101B200007FB6846FFF73CFF01208DF80700002007
:101B30008DF8040010208DF806004002009004206B
:101B40008DF8050069460348FFF788FF1CBD0000BB
:101B500004001800001001400348C06880F40050E1
:101B60000149C860704700000010014008B500F04E
:101B70006BF9FFF795FBFFF72BF9FFF705F9FFF777
:101B8000CBFF002000F038FA01210F48FFF7D0FA10
:101B900000221146142000F0DFF800200B4B0C4A05
:101BA0000C4900900C4800F078FF0B4800F012FF41
:101BB00008E0FFF7D1FF09490978642211FB02F020
:101BC000FFF78AFBF5E7000017001C00A0000020CB
:101BD00078000020005C0040440100203400002018
:101BE00030B50346174804684FF4A040C0EB84208A
:101BF000154D2860FF2C04D84FF48060134D2860E9
:101C000003E04FF40060114D286023B1012B0DD08B
:101C1000022B12D110E00C4800680C4D2D68B0FB6F
:101C2000F5F0086009480068106007E04FF40060B4
:101C300008604000106001E000E000BF00BF00202D
:101C400030BD0000E0F7FF1F0C000020080000205E
:101C500070B506460D461446002216B1012E17D166
:101C60000AE00D482918002203E00878A054491C16
:101C7000521C9A42F9D30BE005F10461002204E002
:101C800008682060091D241D121D9A42F8D300BF68
:101C900000BF002070BD0000005000082DE9FF5F6C
:101CA0008A46934698460024C146009810B1012800
:101CB00047D11CE025480AEB00073E460514FFF714
:101CC0004DFD05E03046FFF77FFCA9EB05092E44EA
:101CD000A945F7D2002405E01BF804103819FFF7D6
:101CE000E7FB641C4445F7D3FFF75EFC29E00AF1EB
:101CF00004673E464FF4805500BF1548FFF724FCAB
:101D00000028FAD1FFF71AFD00BF12480068C0F39F
:101D1000C0100028F9D105E03046FFF755FCA9EBCB
:101D200005092E44A945F7D2002405E05BF804100C
:101D30003819FFF723FD241D4445F7D3FFF7C6FCF0
:101D400000BF00BF002004B0BDE8F09F00500008B5
:101D500001000020902002402DE9F0470B46144678
:101D60004FF0000C00BF2C4A1268C2F302211D463E
:101D700026460A46C2F10709B9F1040F02D94FF00D
:101D8000040901E0C2F10709C84602F10409B9F1EA
:101D9000070F02D24FF0000901E0A2F103094F46FC
:101DA0004FF0010909FA08F9A9F1010909EA050941
:101DB00009FA07F94FF0010A0AFA07FAAAF1010A2B
:101DC0000AEA060A49EA0A09CC460146624600299F
:101DD00004DB15072E0E114D6E5407E015072F0E6C
:101DE0000D4D0C3501F00F06361FAF5500BF0146F3
:101DF00000290DDB00BF00BF01F01F050122AA4032
:101E00004D09AD0005F1E025C5F8002100BF00BF78
:101E100000BFBDE8F08700000CED00E000E400E04A
:101E200000BF00F00702064B19684FF6FF03194088
:101E3000044B0B4343EA0221014B196000BF70477A
:101E40000CED00E00000FA0510B5FFF7C9F901211B
:101E50000846FFF7EBF800BFFFF73AF90028FBD080
:101E600001223B210220FFF785F90020FFF726F928
:101E700001210220FFF7DAF800BF1920FFF706F969
:101E80000128FAD10020FFF79FF80420FFF7B0F8EF
:101E90000420FFF7A3F80120FFF7B4F80220FFF7B2
:101EA000CDF900BFFFF7D4F90228FBD10020FFF7DE
:101EB000A9F800F001F810BD2DE9F0470026002434
:101EC00000250027A046A146FFF7C2F98246BAF1D5
:101ED000000F06D0BAF1010F15D0BAF1020F46D1AA
:101EE00015E02D48406DC0F3402040B12A48006BFA
:101EF000C0F3406018B129482949086002E0294828
:101F00002749086037E027482549086033E0224820
:101F10004068C0F3004720484068C0F383441E482F
:101F20004068C0F341750DB90F2C03D12801401C46
:101F3000044400E0A41C27B91B486043184908600A
:101F400014E015484068C0F3404058B11248406D55
:101F5000C0F30136B01C1349B1FBF0F060431049E7
:101F6000086003E00F4860430D49086003E00D4836
:101F70000B49086000BF00BF07484068C0F3031862
:101F80000A4810F808900648006820FA09F0044949
:101F90000860BDE8F087000000100240006CDC0221
:101FA0004000002000127A0000093D009838000827
:101FB000042808D14FF0E021096941F004014FF0F5
:101FC000E022116107E04FF0E021096921F00401EE
:101FD0004FF0E022116170474020014908807047AE
:101FE0003C0000200146034A108812880A44014B35
:101FF0001A8070473C00002010B50446BCB901208F
:10200000FFF73EF901212748FFF792F841F62C70BF
:10201000FEF7F0F94FF4FA50FEF7F2F941F654707A
:10202000FEF7F4F901210220FEF7CCF938E01E4852
:1020300000681E4A811A904220D009DC1C490844DD
:1020400078B14FEA6101084480B1084430BB11E027
:1020500018480844B0B117490844B8B10844E8B971
:1020600018E04FF00100FFF7FBF818E00020FFF741
:10207000F7F814E00320FFF7F3F810E00220FFF771
:10208000EFF80CE00520FFF7EBF808E00420FFF77D
:10209000E7F804E00620FFF7E3F800E000BF00BF28
:1020A00010BD00001600180040000020000E270799
:1020B000009423FD00CA91FE016C21F0020101642D
:1020C000016E21F002010166704710B50446206CD4
:1020D00020F0010020640020606420658020E0641E
:1020E00001224FF41E41204600F0C2FB10BD016CDE
:1020F00021F0080108310164016C21F00401091D7F
:102100000164704730B50246887A002864D1887827
:10211000012831D10878894B03EB8000D0F8000CFE
:10212000C0F3801098B1087803EB8000D0F8000C61
:1021300048F68F73184040F0400040F4004040F0F3
:1021400080000B787D4C04EB8303C3F8000C0B7804
:102150007A4C04EB8303D3F8003C48F6BF7403EADF
:10216000040040F4004343F080030C78734D05EB0A
:102170008404C4F8003CE0E00878704B03EB800076
:10218000D0F8000CC0F3803088B1087803EB8000F1
:10219000D0F8000C48F68F73184040F4404040F0EF
:1021A00080000B78654C04EB8303C3F8000C0B78BC
:1021B000624C04EB8303D3F8003C4BF68F7403EAC4
:1021C000040040F4004343F080030C785B4D05EBC2
:1021D0008404C4F8003CB0E00878584B03EB80005E
:1021E000D0F8000CC0F3801098B1087803EB8000A1
:1021F000D0F8000C48F68F73184040F0400040F4CF
:10220000004040F080000B784C4C04EB8303C3F893
:10221000000C0878494B03EB8000D0F8000CC0F3A9
:10222000803088B1087803EB8000D0F8000C48F6C5
:102230008F73184040F4404040F080000B783F4CD2
:1022400004EB8303C3F8000C887801283BD108789D
:102250003A4B03EB8000D0F8000C48F68F7318401F
:1022600040F0400040F4004040F080000B78334CD8
:1022700004EB8303C3F8000C0B7804EB8303D3F85F
:10228000003C48F6BF7403EA040040F4004343F006
:1022900080030C78294D05EB8404C4F8003C0B78CE
:1022A0002C4604EB8303D3F8003C4BF68F7403EA0F
:1022B000040040F4004343F080030C7805EB8404F1
:1022C000C4F8003C39E008781C4B03EB8000D0F8E0
:1022D000000C48F68F73184040F4404040F08000F6
:1022E0000B78164C04EB8303C3F8000C0B7804EB5B
:1022F0008303D3F8003C48F6BF7403EA040040F4BB
:10230000004343F080030C780C4D05EB8404C4F8C3
:10231000003C0B782C4604EB8303D3F8003C4BF6CF
:102320008F7403EA040040F4004343F080030C7808
:1023300005EB8404C4F8003C00BF30BD00500040F1
:1023400070B5044600230878FC4A02EB8000D0F800
:10235000000C48F68F72104020F00F004A781043AE
:102360000A78F64D05EB8202C2F8000CC87808B96D
:102370006B1511E0C878012801D100230CE0C87862
:10238000022802D14FF4C06306E0C878032803D1C5
:102390004FF48063012088720878E84A02EB8000DD
:1023A000D0F8000C48F68F72104020F4C06018433B
:1023B0000A78E24D05EB8202C2F8000C8878012809
:1023C0007DD1887AE8BB8A88DD480568087805EB06
:1023D000C000DC4D2D6845F810200878D74A02EB84
:1023E0008000D0F8000CC0F3801098B1087802EBA0
:1023F0008000D0F8000C48F68F72104040F040008A
:1024000040F4004040F080000A78CC4D05EB820299
:10241000C2F8000C0A78C94D05EB8202D2F8002CF4
:1024200048F6BF7502EA050080F0200040F4004243
:1024300042F080020D78C14E06EB8505C5F8002CF0
:1024400007E2FFE70878BD4A02EB8000D0F8000CF5
:1024500040F4807048F68F72104048F280021043BA
:102460000A78B64D05EB8202C2F8000C8A88B4489F
:102470000568087805EBC000B24D2D6845F81020BE
:10248000CA88AF480568087805EBC000001DAD4D4F
:102490002D6845F810200878A84A02EB8000D0F893
:1024A000000CC0F38010A8B1087802EB8000D0F8CF
:1024B000000C48F68F72104040F0400000E060E0F1
:1024C00040F4004040F080000A789C4D05EB820209
:1024D000C2F8000C0878994A02EB8000D0F8000C92
:1024E000C0F3803088B1087802EB8000D0F8000C8F
:1024F00048F68F72104040F4404040F080000A7867
:102500008E4D05EB8202C2F8000C08788B4A02EB74
:102510008000D0F8000C48F68F72104040F4404024
:1025200040F080000A78854D05EB8202C2F8000C6D
:102530000A7805EB8202D2F8002C4BF68F7502EA7E
:10254000050040F4004242F080020D787B4E06EB1D
:102550008505C5F8002C0A78354605EB8202D2F8CD
:10256000002C48F6BF7502EA050080F0200040F418
:10257000004242F080020D7806EB8505C5F8002C7C
:1025800067E1887A002868D1CA886D4805680878AC
:1025900005EBC000001D6B4D2D6845F81020087834
:1025A000664A02EB8000D0F8000CC0F3803088B19E
:1025B000087802EB8000D0F8000C48F68F721040CB
:1025C00040F4404040F080000A785C4D05EB820208
:1025D000C2F8000C5A480568087805EBC000801D59
:1025E000584D2D6805EB40020D893E2D0FDD0D89FC
:1025F00068110D7A05F01F050DB9451EA8B24FF6FA
:10260000FF7505EA802545F4004515600CE00D894D
:1026100068100D7A05F001050DB9451CA8B24FF6FA
:10262000FF7505EA802515600A78444D05EB8202A6
:10263000D2F8002C4BF68F7502EA050080F480502A
:1026400080F4005040F4004242F080020D783B4E8E
:1026500006EB8505C5F8002CFBE00878374A02EB4D
:102660008000D0F8000C40F4807048F68F72104063
:1026700048F2800210430A78304D05EB8202C2F81E
:10268000000C8A882E480568087805EBC0002D4D9F
:102690002D6845F81020CA8829480568087805EB98
:1026A000C000001D274D2D6845F8102024480568FE
:1026B000087805EBC000801C224D2D6805EB400218
:1026C0000D893E2D0FDD0D8968110D7A05F01F056E
:1026D0000DB9451EA8B24FF6FF7505EA802545F4F1
:1026E000004515600CE00D8968100D7A05F00105B4
:1026F0000DB9451CA8B24FF6FF7505EA8025156097
:102700000F480568087805EBC000801D0D4D2D6849
:1027100005EB40020D893E2D16DD0D8968110D7AFD
:1027200005F01F050DB9451EA8B24FF6FF7505EA65
:10273000802545F40045156013E00000005000407E
:10274000505C0040380000200D8968100D7A05F0BB
:1027500001050DB9451CA8B24FF6FF7505EA8025A5
:10276000156008783B4A02EB8000D0F8000CC0F3FB
:10277000801098B1087802EB8000D0F8000C48F681
:102780008F72104040F0400040F4004040F0800064
:102790000A78304D05EB8202C2F8000C08782D4A09
:1027A00002EB8000D0F8000CC0F3803088B10878CC
:1027B00002EB8000D0F8000C48F68F72104040F415
:1027C000404040F080000A78224D05EB8202C2F8BA
:1027D000000C08781F4A02EB8000D0F8000C48F685
:1027E0008F72104040F0400040F4004040F0800004
:1027F0000A78184D05EB8202C2F8000C0A7805EB46
:102800008202D2F8002C4BF68F7502EA050080F4A4
:10281000805080F4005040F4004242F080020D7875
:102820000C4E06EB8505C5F8002C0A78354605EBFD
:102830008202D2F8002C48F6BF7502EA050040F487
:10284000004242F080020D7806EB8505C5F8002CA9
:1028500000BF70BD00500040016C21F00801016410
:10286000016C21F0040101647047CA43426470475F
:10287000012A03D1036C0B43036402E0036C8B4316
:1028800003647047F0B50346084F3F6807EB41000B
:10289000571C7E101D46002405E030F8027B2F8077
:1028A000801CAD1C641CB442F7D3F0BD380000207E
:1028B000C26C61F30602C264C26C22F080028032F4
:1028C000C2647047F0B50346084F3F6807EB41000C
:1028D000571C7E101D46002405E02F8820F8027B3F
:1028E000801CAD1C641CB442F7D3F0BD380000203E
:1028F00070B50446002504F5037694F824020228F6
:1029000002D0032817D100E000BF7088012811D140
:10291000002084F82702B4F82A0220F00200A4F86C
:102920002A02606804F503718268204690472046B9
:1029300000F04FF903E0204600F057F900BF00BF58
:10294000284670BD70B5024601F08003F3B101F076
:102950007F0402F10C0303EB441004781C4D05EBDB
:102960008404D4F8004C48F6BF7504EA050383F0EC
:10297000100383F0200343F4004444F080040578FE
:10298000134E06EB8505C5F8004C1EE001F07F04F0
:1029900002F5867303EB441004780D4D05EB8404B7
:1029A000D4F8004C4BF68F7504EA050383F480538A
:1029B00083F4005343F4004444F080040578044E4B
:1029C00006EB8505C5F8004C00BF0023C37270BD3F
:1029D0000050004010B504462068FFF76DFB10BDA5
:1029E00070B505460E4606F07F0105F10C0000EBC0
:1029F0004114002E44D195F8200202284CD1608B5E
:102A00002189884211DD608B2189401A6083608BA7
:102A10002189884201DA608B00E020890346002189
:102A20002846626900F0EEFA36E0208B2189884260
:102A300017D1A08B2189884213DBA08BB5F8221215
:102A400088420EDA0020208300231A4619462846C1
:102A500000F0D8FA00231A463146284600F098FACA
:102A60001AE06868C06838B195F82402032803D1D9
:102A70006868C16828468847284600F08AF80BE055
:102A80006868406940B195F82402032804D1686859
:102A9000314642692846904770BD2DE9F041044611
:102AA0000D4616461F46DDF818806660A760256053
:102AB000012084F82402204600F0C8F92068FFF7BE
:102AC00004FBBDE8F08170B505460E4606F07F01B7
:102AD00005F5867000EB411426BB95F8200203280B
:102AE0002CD1608B2189884211DD608B2189401AAD
:102AF0006083608B2189884201DA608B00E0208945
:102B0000034631462846626900F042FA16E06868DA
:102B1000006918B16868016928468847284600F0AE
:102B200058F80BE06868806940B195F824020328E2
:102B300004D16868314682692846904770BD70B5F7
:102B400004460D4604F5057104F5037000F03CFEE3
:102B5000012084F8200240F21220005BA4F8220237
:102B600094F80C0200F01F0020B1012806D00228C2
:102B70000CD107E0204600F043F808E0204600F0C2
:102B8000AEFC04E0204600F07BF800E000BF00BF90
:102B900070BD10B50446052084F8200200231A46B3
:102BA0001946204600F0F4F910BD2DE9F041054624
:102BB0000E46144605F10C07BC837C83022085F881
:102BC0002002234632460021284600F01BFABDE8C9
:102BD000F08110B50446042084F8200200231A4630
:102BE0001946204600F00EFA10BD10B5044600212B
:102BF000204600F0A5FD8021204600F0A1FD10BD7B
:102C000070B50446002504F50376307800F06000C6
:102C100038B1606804F50371826820469047284601
:102C200070BD40F20D20005D0A2822D2DFE800F0DE
:102C30000509210D21111521191D204600F00EFC5A
:102C40001BE02046FFF754FE17E0204600F062FD2F
:102C500013E0204600F0D0FC0FE0204600F07BFBA4
:102C60000BE0204600F04CFB07E0204600F0EEFCB5
:102C700003E02046FFF7B9FF00BF00BF2846CFE7BB
:102C80002DE9F04104464FF0000804F503773D7943
:102C9000387800F06000202805D1606804F50371E1
:102CA000826820469047787820B1012835D00328E3
:102CB0007DD15AE094F82402022802D0032826D1BC
:102CC00007E005F07F0018B12946204600F038FDE6
:102CD00021E005F0800030B105F07F0104F10C0027
:102CE00000EB411605E005F07F0104F5867000EB6E
:102CF0004116F07A012801D1B08101E00020B081B5
:102D0000022206F10C012046FFF74FFF03E02046A8
:102D1000FFF76BFF00BF00BF54E094F824020228C5
:102D200002D003281BD107E02DB1802D03D0294606
:102D3000204600F005FD16E0788878B905F07F00A0
:102D400048B129462046FFF7FDFD606804F5037190
:102D50008268204690472046FFF73BFF03E020466D
:102D6000FFF743FF00BF00BF2CE094F824020228C5
:102D700002D003281CD107E02DB1802D03D02946B5
:102D8000204600F0DDFC17E0788830B92DB1802DA9
:102D900003D02946204600F0D3FC606804F5037197
:102DA0008268204690472046FFF713FF04E005E0C5
:102DB0002046FFF71AFF00BF00BF03E02046FFF7E1
:102DC00014FF00BF00BF4046BDE8F08110B50446C7
:102DD0002068FFF78CF910BD10B50446A07A80B9C1
:102DE000A078012806D1A088B8B92089FFF7FAF8A1
:102DF000A08012E0E08880B92089FFF7F3F8E08036
:102E00000BE0A08818B92089FFF7ECF8A080E088D3
:102E100018B92089FFF7E6F8E08010BD70B50446C8
:102E20000D4605F0800030B105F07F0104F10C0083
:102E300000EB411605E005F07F0104F5867000EB1C
:102E4000411631462068FFF75DF970BD014600204C
:102E500000BF2BE001F10C0202EB4012107001F1F7
:102E60000C0202EB40125070012301F10C0202EB44
:102E700040129370002301F10C0202EB4012138107
:102E800001F10C0202EB4012536101F10C0202EB62
:102E90004012D38101F10C0202EB4012938001F148
:102EA0000C0202EB4012D380421CD0B20828D1DBC6
:102EB00000202AE001F5867202EB4012107001F545
:102EC000867202EB40125070002301F5867202EB0D
:102ED0004012937001F5867202EB4012138101F5E6
:102EE000867202EB4012536101F5867202EB4012CA
:102EF000D38101F5867202EB4012D38001F5867210
:102F000002EB40129380421CD0B20828D2DB7047FB
:102F10002DE9F04104462668002705E005F00F077B
:102F20003946204600F0FEF8756C05F40040002894
:102F3000F4D1BDE8F0812DE9F04705460E4617466D
:102F40009846D5F8009006F0800040B906F07F0161
:102F500005F5867000EB41140020A07007E006F034
:102F60007F0105F10C0000EB41140120A07008F175
:102F700001004FF6FE7108402081E7702046FFF700
:102F80002BFF21464846FFF7DBF9BDE8F08700003C
:102F90002DE9F0410546144601F07F0705F58672DC
:102FA00002EB471000264461C38100220282C289DD
:102FB0000789BA4204DD0689C289921BC28102E0F8
:102FC0001E460022C2814F06DFF834C00CEBD757F3
:102FD000D7F8007C4BF68F7C07EA0C0282F4805213
:102FE00082F4005242F4004747F080074FEA416CF8
:102FF000DFF80C8008EBDC5CCCF8007CBDE8F081ED
:10300000005000402DE9F04707460D46914698468E
:1030100005F07F0107F10C0000EB41140026D7F802
:1030200000A0C4F81490A4F80E8000202082E0894B
:103030002189884204DD2689E089801BE08102E045
:1030400046460020E0812683A07A80B9A1883246D6
:103050006069FFF737FC3048016805F07F0001EB3D
:10306000C000801C2D49096841F810603AE005F065
:103070007F005AF82000C0F3801080B12648016814
:1030800005F07F0001EBC000801D2449096841F86C
:103090001060E18832466069FFF714FC0FE01E48BB
:1030A000016805F07F0001EBC000801C1B49096826
:1030B00041F81060A18832466069FFF703FC68069A
:1030C000174901EBD050D0F8000C48F68F7108403A
:1030D00040F4404040F080006906114A02EBD151B3
:1030E000C1F8000C69060E4A02EBD151D1F8001C60
:1030F00048F6BF7201EA020080F0100080F0200064
:1031000040F4004141F080016A06054B03EBD252C6
:10311000C2F8001CBDE8F087505C00403800002079
:10312000005000402DE9F04706460D46D6F80090C5
:1031300059F8258008F0800000283FD006F10C00E7
:1031400000EB45146B4901EB8500D0F8000C48F604
:103150000F710840674A02EB8501C1F8000C664810
:10316000006800EBC500801C6449096831F8100054
:10317000C0F309002082218A606908446061E08907
:1031800000B125B929463046FFF72AFC05E0E3895E
:10319000294630466269FFF735FF96F82402022877
:1031A0000BD196F82602002807DD96F82612306823
:1031B000FFF77EFB002086F8260298E006F5867071
:1031C00000EB451408F40060F8B14B48006800EBD0
:1031D000C500801D4949096831F81000C0F3090095
:1031E0002082228AE18806F50570FFF74BFB4248F2
:1031F0005038006840F68F7108403F4950390860E8
:1032000029463046FFF79BFC71E008F40040002897
:103210006DD0384901EB8500D0F8000C40F68F7175
:103220000840344A02EB8501C1F8000CA07A80B94D
:103230003148006800EBC500801D3049096831F84D
:103240001000C0F30907E1883A466069FFF71AFBEE
:1032500036E008F4804080B12748006800EBC500E4
:10326000801C2649096831F81000C0F30907A188BD
:103270003A466069FFF706FB0FE01F48006800EB65
:10328000C500801D1D49096831F81000C0F3090709
:10329000E1883A466069FFF7F5FA164901EB8500C7
:1032A000D0F8000C48F68F71084040F0400040F420
:1032B000004040F080000F4A02EB8501C1F8000C8D
:1032C000208A38442082606938446061E08918B1FE
:1032D0002089B84200DC25B929463046FFF7F3FBC8
:1032E00005E0E389294630466269FFF751FEBDE8F3
:1032F000F087000000500040505C00403800002083
:1033000070B50446002504F50376F088012803D043
:103310002046FFF76AFC1CE094F82402022802D041
:10332000032811D109E0002084F82802012204F5C5
:103330000A712046FFF739FC0AE0012204F2292134
:103340002046FFF732FC03E02046FFF74EFC00BFAB
:1033500000BF284670BD2DE9F04704464FF0000835
:10336000C146002540F20E20005B0612082E4BD20B
:10337000DFE806F04A04090E4A4A4145A168086898
:103380008047054645E0A16888688047054640E0DB
:1033900040F20E20075D062F22D2DFE807F0030877
:1033A0000D12171CA16808698047054621E0A16835
:1033B0004869804705461CE0A16888698047054642
:1033C00017E0A168C8698047054612E0A168486A0D
:1033D000804705460DE0A168086A8047054608E079
:1033E000606804F503718268204690474046BDE856
:1033F000F08700BF0DE02046FFF7F7FB09E020460D
:10340000FFF7F3FB4046F2E72046FFF7EEFB4046AE
:10341000EDE700BFB5B12888A0B140F21220005BF3
:1034200080B1298840F21220005B814201DA2888AD
:1034300002E040F21220005B81464A46204669685D
:10344000FFF7B3FB4046D2E710B5024601F07F0418
:1034500002F5867000EB4413188A10BD70B504465F
:10346000002594F82402022802D0032811D100E09C
:1034700000BF94F8270228B1B4F82A0240F00200F5
:10348000A4F82A02022204F22A212046FFF78DFB2B
:1034900003E02046FFF7A9FB00BF00BF284670BD30
:1034A00030B50B46002100BF16E00A24B4EB107FB4
:1034B00005D9302404EB107403F8114005E04124D1
:1034C00004EB10740A3C03F81140000100254C0085
:1034D000641C1D554C1CE1B29142E6DB30BD70B559
:1034E0000446002504F5037694F8240203280BD142
:1034F000606804F50371826820469047F08810B92F
:103500002046FFF766FB03E02046FFF76EFB00BF97
:1035100000BF284670BD2DE9F04107463E68746C37
:10352000356C04F4004010B13846FFF7F1FC04F4A8
:10353000806038B14FF480613046FFF796F9384625
:1035400000F037F804F4007050B105F4007038B1A1
:103550004FF400713046FFF788F9384600F048F91B
:1035600004F4807038B105F4807020B14FF480719C
:103570003046FFF77AF904F4006050B105F40060BA
:1035800038B14FF400613046FFF76FF9384600F06C
:1035900039F904F4805050B105F4805038B1384600
:1035A00000F063F94FF480513046FFF75EF9BDE853
:1035B000F08110B50446FEF70FFD2046FFF746FCEC
:1035C0004023002211462046FFF7B5FC402300228D
:1035D00080212046FFF7AFFC00212068FFF768F943
:1035E000012084F824026068006A20B1606801212B
:1035F000026A2046904710BD2DE9F041044600279D
:1036000004F50375A888D0B9E888C0B9A87800F097
:103610007F0694F82402032803D12046FFF7E5FA39
:1036200010E084F826621EB1022084F8240202E031
:10363000012084F824022046FFF7CBFA02E020465E
:10364000FFF7D3FA3846BDE8F081000070B50446B4
:10365000002604F50375A8782D490870A88800286D
:1036600050D1E88800284DD194F82402022802D0D5
:10367000032842D115E02648007870B1244800782C
:1036800084F82902032084F8240260680168204637
:1036900088472046FFF79DFA02E02046FFF799FA97
:1036A0002FE01B48007870B9022084F824021848E3
:1036B000007884F8290260684168204688472046DF
:1036C000FFF787FA18E094F829021149097888422F
:1036D0000FD160684168204688470D48007884F81B
:1036E000290260680168204688472046FFF771FA82
:1036F00002E02046FFF76DFA03E02046FFF775FA77
:1037000000BF02E02046FFF770FA304670BD0000AF
:103710004400002070B50446002504F50376708847
:1037200001280AD184F82702606804F503718268D1
:10373000204690472046FFF74CFA284670BD00000F
:1037400070B5024601F08003E3B101F07F0402F19D
:103750000C0303EB441004781A4D05EB8404D4F8F1
:10376000004C48F6BF7504EA050383F0100343F4E8
:10377000004444F080040578124E06EB8505C5F838
:10378000004C1CE001F07F0402F5867303EB44104B
:1037900004780C4D05EB8404D4F8004C4BF68F757F
:1037A00004EA050383F4805343F4004444F08004A6
:1037B0000578044E06EB8505C5F8004C00BF0123D3
:1037C000C37270BD005000400A7802704A7842709F
:1037D0008B78CA7803EB022242800B794A7903EB9B
:1037E000022282808B79CA7903EB0222C280704761
:1037F00010B504466068C06918B16068C1692046A8
:10380000884710BD10B5044694F8240284F82502B8
:10381000042084F824022046FFF7D8FA6068006A82
:1038200020B160680221026A2046904710BDF0B5C1
:103830000346002002241A460CE0451CA8B212F8E8
:10384000017B2546661CB4B24F5500272546661CF1
:10385000B4B24F551578002DEFD1022505EB400588
:10386000A8B2087003254D70F0BD10B5044620685D
:10387000FEF7F2FF94F8250284F824026068006ADB
:1038800020B160680321026A2046904710BD4FF0C6
:103890004070E1EE100A70470000000000000000D8
:1038A0000102030406070809C838000800000020C8
:1038B00044010000C00100088839000844010020CC
:1038C000DC1900001C020008917208128033011FED
:1038D0001E4154333220012E4469736B3009590163
:1038E00046322E3030011260434040D3127A1270BB
:1038F0005205720A021020620613B30E1B0845041B
:103900001AF1041A7B041A61041A9F041ADD0413C5
:10391000C30F1B0881081370031420951814083D69
:10392000191B088D081A05081AD5081ADD041A098A
:103930000C1A41041A9D0C1A590413120132021672
:10394000403C2E20571D02010203A514090220202D
:1039500008010104C0320904180A020806500507CC
:10396000058102B62C07050107071A040309041A8A
:103970000332121AC8C329C41ADC081946111AFCEA
:0839800008421A8A01DB000075
:040000050800018569
:00000001FF
