:020000040800F2
:100000007006002025020008F5020008ED02000835
:10001000F1020008DF020008710300080000000080
:10002000000000000000000000000000F9020008CD
:10003000E302000800000000F7020008FB020008CD
:100040003F0200083F0200083F0200083F0200088C
:100050003F0200083F020008E50200083F020008D6
:100060003F0200083F0200083F0200083F0200086C
:100070003F0200083F0200083F0200083F0200085C
:100080003F0200083F0200083F0200083F0200084C
:100090003F0200083F0200083F0200083F0200083C
:1000A0003F0200083F0200083F0200083F0200082C
:1000B0003F0200083F0200083F0200083F0200081C
:1000C0003F0200083F0200083F0200083F0200080C
:1000D0003F0200083F0200083F0200083F020008FC
:1000E0003F0200083F0200083F0200083F020008EC
:1000F0003F0200083F0200083F0200083F020008DC
:100100003F0200083F0200083F0200083F020008CB
:100110003F0200083F0200083F0200083F020008BB
:100120003F0200083F0200083F0200083F020008AB
:100130003F0200083F0200083F0200083F0200089B
:1001400000000000000000000000000000000000AF
:100150003F0200083F0200083F0200083F0200087B
:100160003F0200083F0200083F0200083F0200086B
:100170003F0200083F0200083F0200083F0200085B
:100180003F02000800F002F800F03CF80AA090E8F6
:10019000000C82448344AAF10107DA4501D100F042
:1001A00031F8AFF2090EBAE80F0013F0010F18BFD3
:1001B000FB1A43F001031847DC0A0000FC0A0000A8
:1001C000103A24BF78C878C1FAD8520724BF30C883
:1001D00030C144BF04680C60704700000023002455
:1001E00000250026103A28BF78C1FBD8520728BF47
:1001F00030C148BF0B6070471FB500F03DFD1FBD0B
:1002000010B510BD00F031F81146FFF7F5FF00F012
:10021000D9FB00F04FF803B4FFF7F2FF03BC00F086
:1002200057F800000948804709480047FEE7FEE705
:10023000FEE7FEE7FEE7FEE7FEE7FEE7FEE7FEE796
:1002400004480549054A064B70470000FD020008B6
:100250008501000870000020700600207002002058
:1002600070020020704770477047754600F02CF808
:10027000AE4605006946534620F00700854618B093
:1002800020B5FFF7DDFFBDE820404FF000064FF03E
:1002900000074FF000084FF0000B21F00701AC46BB
:1002A000ACE8C009ACE8C009ACE8C009ACE8C009DA
:1002B0008D46704710B50446AFF300802046BDE878
:1002C0001040FFF7A8BF0000004870471000002052
:1002D00001491820ABBEFEE726000200704700BFB0
:1002E000FEE7704710B500F087F810BD00BFFEE7CD
:1002F00000BFFEE7704770477047704719480068B5
:1003000040F47000174908601748006820F00100A9
:10031000401C1549086000BF13480068C0F3400046
:100320000028F9D01048406820F003000E494860CA
:1003300000BF0D484068C0F381000028F9D10A4988
:1003400048600846006809490840074908600020DD
:1003500008634FF41F008860C803024980390860B1
:100360007047000088ED00E000100240FFFFF2FE41
:1003700000BFFEE70EB501214FF4C01000F0F4F805
:100380000021084600F044FA684600F0DBF901203D
:100390008DF8090000208DF80000012001908DF8F3
:1003A0000800684600F0DCF9032000F089FB002219
:1003B0001146062000F020FB0EBD00001CB50121F7
:1003C0000B4800F0D1F8684600F016FA01208DF8CD
:1003D000070000208DF804008DF806000120009031
:1003E00018208DF805006946024800F063FA1CBD2C
:1003F000020018000008014010B5052000F068F95F
:10040000012000F0A7F90121074800F0A7FA50B930
:1004100006480078042803D101200449087002E04E
:1004200004200249087010BD0008014008000020A7
:100430000349496860F30711014A516070470000A1
:10044000001002400349496860F30A21014A5160E3
:1004500070470000001002400349496860F3CD2155
:10046000014A51607047000000100240012807D186
:100470000749496D21F030013031054A516505E0E9
:100480000349496D21F03001014A51657047000070
:1004900000100240052827D2DFE800F0030A1118F7
:1004A0001F00134A126861F30002114B1A601CE02E
:1004B0000F4A126861F310420D4B1A6015E00C4AA6
:1004C000126861F318620A4B1A600EE0084A126A59
:1004D00061F30002064B1A6207E0054A526A61F3B3
:1004E0000002034B5A6200E000BF00BF70470000EB
:1004F0000010024010B501460020094B03EB1142E9
:10050000126801F01F040123A3401A4001F01F04E8
:100510000123A3409A4200D000E0012010BD00005A
:10052000001002400349496D60F30D31014A5165E5
:10053000704700000010024030B50024002500E0A4
:10054000641C1120FFF7D6FF012802D0B4F5405FEC
:10055000F6D31120FFF7CEFF012801D0002500E0DF
:100560000125284630BD000010B501290DD10E4BE4
:1005700003EB1042126800F01F040123A3401A434A
:10058000094C04EB10431A600CE0074B03EB1042DC
:10059000126800F01F040123A3409A43024C04EBAD
:1005A00010431A6010BD00000010024010B530B9B1
:1005B000184B5B6823F48033164C636017E0154BCF
:1005C0005B6823F4803303F58033124C63600128A9
:1005D00005D123465B6823F40033636007E00D4BCD
:1005E0005B6823F4003303F500330A4C6360094B66
:1005F0005B6861F39543074C63600C09054B5B68CE
:1006000064F35E73034C636023465B6862F3DF73DD
:10061000636010BD001002401448006820F0010023
:10062000401C1249086000BF10480068C0F3400039
:100630000028F9D00D48406820F003000B494860BD
:1006400000BF0A484068C0F381000028F9D107497B
:1006500048600846006806490840044908600020D0
:1006600008634FF41F0088607047000000100240CC
:10067000FFFFF2FE0349496860F30101014A51603E
:10068000704700000010024002484068C0F381003B
:10069000704700000010024010B5042000F0D8FAA6
:1006A000074800680749B0FBF1F0074908600846B1
:1006B00000684FF47A7148430449086010BD000097
:1006C0000C00002040420F00000000200400002029
:1006D000002131E032280ADD194A126832235A43D8
:1006E0004FF0E0235A61A0F1320290B206E0144AC2
:1006F000126842434FF0E0235A61002000224FF07D
:10070000E0239A611A46126942F001021A6100BFA1
:100710004FF0E022116901F001021AB101F48032B8
:10072000002AF5D04FF0E022126922F001024FF0CA
:10073000E0231A6100229A610028CBD170470000A3
:10074000040000200021417241600121017201700A
:100750007047000001490860704700001404014020
:10076000014600204868234A12688243214B1A60E0
:100770001A1D126882431B1D1A604A7A0AB30A784E
:100780002AB91A1F126802431B1F1A6006E0194A91
:10079000121D12680243174B1B1D1A60154A0832BE
:1007A00012688243134B08331A601A1D1268824381
:1007B0001B1D1A600A7A2AB91A1F126802431B1FEE
:1007C0001A6016E00A7A012A07D10A4A0C32126826
:1007D0000243084B0C331A600BE0064A08321268D9
:1007E0000243044B08331A601A1D126802431B1D92
:1007F0001A607047000401404FF6FF71016000214C
:1008000081710171042141710121C17170470000A2
:1008100010B500228B071C0F0F2303FA04F28B1074
:1008200033B1012B13D0022B20D0032B3CD12CE071
:100830001F4B9B6893431E4CA36023469B688C0709
:10084000240F00FA04F42343194CA3602DE0184B45
:10085000DB689343164CE3602346DB688C07240F68
:1008600000FA04F42343124CE3601EE0104B1B69B2
:1008700093430F4C236123461B698C07240F00FA16
:1008800004F423430A4C23610FE0094B5B69934353
:10089000074C636123465B698C07240F00FA04F45C
:1008A0002343034C636100E000BF00BF10BD0000A4
:1008B00000000140F0B50A461588ABB29579032DCA
:1008C00001D100241AE0957965B9557905F00F0436
:1008D0005579182D01D1036110E05579282D0DD1DE
:1008E00043610BE0957905F00805167906F00406DA
:1008F0003543D67906F0030645EA0604DDB2A5B114
:10090000002110E001258D401D405DB105688F007C
:100910000F26BE40B543056005688E0004FA06F652
:1009200035430560491C0829ECD3FF2B15DD1B124C
:10093000002110E001258D401D405DB145688F000C
:100940000F26BE40B543456045688E0004FA06F6A2
:1009500035434560491C0829ECD3F0BD0246002010
:1009600093680B408B4200D000E0012070470000EC
:100970001CB501210C48FFF7F7FD6846FFF73CFF67
:1009800001208DF8070000208DF8040010208DF85C
:1009900006004002009004208DF8050069460348D7
:1009A000FFF788FF1CBD0000040018000010014084
:1009B0000348C06880F400500149C86070470000D7
:1009C0000010014000F090F8FFF766FEFFF7F6FC1C
:1009D000FFF7D0FCFFF7CCFFFFF7CAFF08E0FFF7F7
:1009E000E7FF04490978642211FB02F0FFF770FE6B
:1009F000F5E70000080000202DE9F0470B461446FB
:100A00004FF0000C00BF2C4A1268C2F302211D46B1
:100A100026460A46C2F10709B9F1040F02D94FF080
:100A2000040901E0C2F10709C84602F10409B9F15D
:100A3000070F02D24FF0000901E0A2F103094F466F
:100A40004FF0010909FA08F9A9F1010909EA0509B4
:100A500009FA07F94FF0010A0AFA07FAAAF1010A9E
:100A60000AEA060A49EA0A09CC4601466246002912
:100A700004DB15072E0E114D6E5407E015072F0EDF
:100A80000D4D0C3501F00F06361FAF5500BF014666
:100A900000290DDB00BF00BF01F01F050122AA40A5
:100AA0004D09AD0005F1E025C5F8002100BF00BFEC
:100AB00000BFBDE8F08700000CED00E000E400E0BE
:100AC00000BF00F00702064B19684FF6FF031940FC
:100AD000044B0B4343EA0221014B196000BF7047EE
:100AE0000CED00E00000FA0510B5FFF795FD0121BF
:100AF0000846FFF7CFFC00BFFFF71EFD0028FBD024
:100B000001223B210220FFF751FD0020FFF70AFDE3
:100B100001210220FFF7BEFC00BF1920FFF7EAFC0D
:100B20000128FAD10020FFF783FC0420FFF794FC92
:100B30000420FFF787FC0120FFF798FC0220FFF755
:100B400099FD00BFFFF7A0FD0228FBD10020FFF7B1
:100B50008DFC00F001F810BD2DE9F04700260024BF
:100B600000250027A046A146FFF78EFD8246BAF178
:100B7000000F06D0BAF1010F15D0BAF1020F46D11D
:100B800015E02D48406DC0F3402040B12A48006B6D
:100B9000C0F3406018B129482949086002E029489B
:100BA0002749086037E027482549086033E0224894
:100BB0004068C0F3004720484068C0F383441E48A3
:100BC0004068C0F341750DB90F2C03D12801401CBA
:100BD000044400E0A41C27B91B486043184908607E
:100BE00014E015484068C0F3404058B11248406DC9
:100BF000C0F30136B01C1349B1FBF0F0604310495B
:100C0000086003E00F4860430D49086003E00D48A9
:100C10000B49086000BF00BF07484068C0F30318D5
:100C20000A4810F808900648006820FA09F00449BC
:100C30000860BDE8F087000000100240006CDC0294
:100C40000C00002000127A0000093D00820C000810
:100C5000042808D14FF0E021096941F004014FF068
:100C6000E022116107E04FF0E021096921F0040161
:100C70004FF0E022116170474FF04070E1EE100A32
:100C80007047000000000000000001020304060796
:100C900008090000B40C000800000020100000004B
:100CA000C0010008C40C000810000020600600000D
:100CB000DC0100080000000000000000010000004E
:040CC00000127A00A4
:040000050800018569
:00000001FF
